:100000000C9462000C948A000C948A000C948A0070
:100010000C948A000C948A000C948A000C948A0038
:100020000C948A000C948A000C948A000C948A0028
:100030000C948A000C948A000C948A000C948A0018
:100040000C94B0000C948A000C941A030C949D0339
:100050000C948A000C948A000C948A000C948A00F8
:100060000C948A000C948A000000000024002700F1
:100070002A0000000000250028002B0000000000DE
:1000800023002600290004040404040404040202DA
:100090000202020203030303030301020408102007
:1000A0004080010204081020010204081020000012
:1000B0000007000201000003040600000000000029
:1000C0000000500311241FBECFEFD8E0DEBFCDBF2C
:1000D00011E0A0E0B1E0EEE4F8E002C005900D927E
:1000E000A431B107D9F711E0A4E1B1E001C01D923C
:1000F000AA3BB107E1F710E0C4ECD0E004C02297BE
:10010000FE010E942104C23CD107C9F70E94C3032B
:100110000C9425040C940000E0911D01F0911E0147
:100120000280F381E02D8DE191E060E071E041E03B
:1001300050E0099568EE73E080E090E00E943301A2
:1001400008958091020161E00E949B018DE191E0A0
:1001500040E855E260E070E026E00E940A0208955F
:100160001F920F920FB60F9211242F933F938F93EC
:100170009F93AF93BF938091180190911901A09123
:100180001A01B0911B0130911C010196A11DB11DF6
:10019000232F2D5F2D3720F02D570196A11DB11D66
:1001A00020931C018093180190931901A0931A01C8
:1001B000B0931B018091140190911501A09116013B
:1001C000B09117010196A11DB11D80931401909368
:1001D0001501A0931601B0931701BF91AF919F91A4
:1001E0008F913F912F910F900FBE0F901F901895F8
:1001F000789484B5826084BD84B5816084BD85B502
:10020000826085BD85B5816085BDEEE6F0E08081C8
:1002100081608083E1E8F0E01082808182608083E9
:10022000808181608083E0E8F0E08081816080836C
:10023000E1EBF0E0808184608083E0EBF0E080819E
:1002400081608083EAE7F0E0808184608083808140
:1002500082608083808181608083808180688083E8
:100260001092C1000895EF92FF920F931F93CF93C6
:10027000DF937B018C013FB7F8948091140190913A
:100280001501A0911601B091170126B5A89B05C0D4
:100290002F3F19F00196A11DB11D3FBFBA2FA92F05
:1002A000982F8827820F911DA11DB11D52E0880F44
:1002B000991FAA1FBB1F5A95D1F7EC0130C00E94AD
:1002C000FC033FB7F8948091140190911501A0911F
:1002D0001601B091170126B5A89B05C02F3F19F054
:1002E0000196A11DB11D3FBFBA2FA92F982F8827B6
:1002F000820F911DA11DB11D32E0880F991FAA1F09
:10030000BB1F3A95D1F78C1B9D0B885E9340B8F2CA
:100310000894E108F10801091109C851DC4FE11402
:10032000F1040105110559F6DF91CF911F910F914D
:10033000FF90EF900895CF93DF93482F50E0CA01CC
:1003400086569F4FFC0134914A575F4FFA018491C2
:10035000882369F190E0880F991FFC01E859FF4F4D
:10036000A591B491FC01EE58FF4FC591D49166233D
:1003700051F42FB7F8948C91932F909589238C93F7
:10038000888189230BC0623061F42FB7F8948C9177
:10039000932F909589238C938881832B88832FBFFB
:1003A00006C09FB7F8948C91832B8C939FBFDF91ED
:1003B000CF910895DC015C968C915C97FD01E80F6C
:1003C000F11DE35AFF4F20815C968C915C9790E081
:1003D00001968F7390705C968C935C975696ED9116
:1003E000FC91579720835096ED91FC915197808115
:1003F000806480835B969C915B975C968C915C9704
:10040000981739F45296ED91FC91539780818F7D26
:1004100080830895DF92EF92FF920F931F93CF9303
:10042000DF93EC017A018B01D22EE889F98982E011
:100430008083403081EE580780E0680780E07807CD
:10044000A1F060E079E08DE390E0A80197010E94BF
:10045000FD03215030404040504056954795379518
:10046000279580E12030380798F0E889F9891082D3
:1004700060E874E88EE190E0A80197010E94FD0316
:10048000215030404040504056954795379527952C
:10049000EC85FD853083EE85FF852083188EEC8901
:1004A000FD89D082EA89FB89808180618083EA8925
:1004B000FB89808188608083EA89FB8980818068EC
:1004C0008083EA89FB8980818F7D8083DF91CF9152
:1004D0001F910F91FF90EF90DF900895FC01218D07
:1004E000828D30E0205C3F4F281B31092F73307024
:1004F000C9010895FC01918D828D981719F42FEF91
:100500003FEF06C0828DE80FF11D858D282F30E06A
:10051000C9010895DC0159969C9159975A968C917E
:100520005A97981719F42FEF3FEF10C05A968C91F5
:100530005A97FD01E80FF11D958D5A968C915A97A7
:100540008F5F8F735A968C93292F30E0C9010895DD
:10055000CF93DF93EC01888D882361F419C08C91CF
:1005600085FF0AC0E889F989808185FF05C0CE0131
:100570000E94DA01AA89BB898C9185FD05C0E889B2
:10058000F989808186FD04C00FB607FEE8CFF4CF5D
:10059000DF91CF9108950F931F93CF93DF93EC01D9
:1005A000062F9B8D8C8D981791F5E889F9898081AC
:1005B00085FF2DC0EE89FF896083E889F9898081F4
:1005C000806480831DC00FB607FC08C0E889F989E4
:1005D000808185FF03C0CE010E94DA018C8D18173F
:1005E00091F38B8DFE01E80FF11DE35AFF4F00835D
:1005F0001B8FEA89FB8980818062808381E0888FFC
:1006000081E090E0DF91CF911F910F9108951B8DB4
:100610001F5F1F73E3CF83E993E0892B51F080E0E4
:1006200090E0892B31F00E949303882311F00E94FF
:10063000000008951F920F920FB60F9211242F936E
:100640008F939F93EF93FF93E0912D01F0912E01F3
:10065000808182FD16C0E0913301F0913401208148
:10066000909136019F5F9F7380913701981771F0C9
:10067000E0913601F0E0E35EFE4F258F9093360166
:1006800005C0E0913301F0913401E081FF91EF91D9
:100690009F918F912F910F900FBE0F901F901895E3
:1006A0001092200110921F0188EE93E0A0E0B0E0CC
:1006B0008093210190932201A0932301B093240100
:1006C00088E091E090931E0180931D0185EC90E0FD
:1006D00090932A018093290184EC90E090932C015F
:1006E00080932B0180EC90E090932E0180932D015C
:1006F00081EC90E09093300180932F0182EC90E0A8
:10070000909332018093310186EC90E09093340114
:100710008093330110923601109237011092380104
:100720001092390108958DE191E00E946E0220E05F
:10073000892B09F021E0822F08951F920F920FB6A6
:100740000F9211242F933F934F935F936F937F9357
:100750008F939F93AF93BF93EF93FF938DE191E0BE
:100760000E94DA01FF91EF91BF91AF919F918F911C
:100770007F916F915F914F913F912F910F900FBE9D
:100780000F901F901895CF93DF930E94F8000E945E
:10079000A100CBE0D3E00E948C002097E1F30E94FF
:1007A0000B03F9CFCF92DF92EF92FF920F931F933B
:1007B000CF93DF937C016B018A01C0E0D0E00FC0D2
:1007C000D6016D916D01D701ED91FC910190F08101
:1007D000E02DC7010995C80FD91F01501040011520
:1007E000110571F7CE01DF91CF911F910F91FF900D
:1007F000EF90DF90CF9008950895A1E21A2EAA1BE2
:10080000BB1BFD010DC0AA1FBB1FEE1FFF1FA217C0
:10081000B307E407F50720F0A21BB30BE40BF50BBD
:10082000661F771F881F991F1A9469F76095709546
:10083000809590959B01AC01BD01CF010895EE0F0D
:0E084000FF1F0590F491E02D0994F894FFCF6E
:10084E0061000D0000000000CB02D2036E028A028E
:04085E007A02A80270
:00000001FF
